{"abi":[{"type":"constructor","inputs":[],"stateMutability":"nonpayable"},{"type":"fallback","stateMutability":"payable"},{"type":"receive","stateMutability":"payable"},{"type":"function","name":"MINIMUM_USD","inputs":[],"outputs":[{"name":"","type":"uint256","internalType":"uint256"}],"stateMutability":"view"},{"type":"function","name":"fund","inputs":[],"outputs":[],"stateMutability":"payable"},{"type":"function","name":"fundedAmount","inputs":[{"name":"funder","type":"address","internalType":"address"}],"outputs":[{"name":"amount","type":"uint256","internalType":"uint256"}],"stateMutability":"view"},{"type":"function","name":"funderList","inputs":[{"name":"","type":"uint256","internalType":"uint256"}],"outputs":[{"name":"","type":"address","internalType":"address"}],"stateMutability":"view"},{"type":"function","name":"funders","inputs":[{"name":"funder","type":"address","internalType":"address"}],"outputs":[{"name":"isFunded","type":"bool","internalType":"bool"}],"stateMutability":"view"},{"type":"function","name":"getBalance","inputs":[],"outputs":[{"name":"","type":"uint256","internalType":"uint256"}],"stateMutability":"view"},{"type":"function","name":"getFunderList","inputs":[],"outputs":[{"name":"","type":"address[]","internalType":"address[]"}],"stateMutability":"view"},{"type":"function","name":"getThisContractAddress","inputs":[],"outputs":[{"name":"","type":"address","internalType":"address"}],"stateMutability":"view"},{"type":"function","name":"owner","inputs":[],"outputs":[{"name":"","type":"address","internalType":"address"}],"stateMutability":"view"},{"type":"function","name":"withdrawn","inputs":[],"outputs":[],"stateMutability":"nonpayable"},{"type":"event","name":"Funded","inputs":[{"name":"funder","type":"address","indexed":true,"internalType":"address"},{"name":"ethAmount","type":"uint256","indexed":false,"internalType":"uint256"},{"name":"usdAmount","type":"uint256","indexed":false,"internalType":"uint256"}],"anonymous":false},{"type":"event","name":"WithDrawn","inputs":[{"name":"owner","type":"address","indexed":true,"internalType":"address"},{"name":"amount","type":"uint256","indexed":false,"internalType":"uint256"}],"anonymous":false},{"type":"error","name":"InsufficientBalance","inputs":[{"name":"available","type":"uint256","internalType":"uint256"},{"name":"required","type":"uint256","internalType":"uint256"}]},{"type":"error","name":"NoAvailableAmount","inputs":[{"name":"message","type":"string","internalType":"string"}]},{"type":"error","name":"WrongOwner","inputs":[{"name":"message","type":"string","internalType":"string"}]}],"bytecode":{"object":"0x60a0604052348015600e575f5ffd5b50336080526080516107df6100405f395f8181610187015281816103cf0152818161044a01526104e101526107df5ff3fe608060405260043610610094575f3560e01c80638da5cb5b116100585780638da5cb5b14610176578063ae6f4a5d146101a9578063b60d4288146100a3578063be7a0f61146101ca578063c80ec522146101e9576100a3565b8063031b3677146100ab57806312065fe0146100ee57806331bfee0a1461010a5780634099d033146101305780636b69a5921461015b576100a3565b366100a3576100a16101fd565b005b6100a16101fd565b3480156100b6575f5ffd5b506100d96100c536600461064b565b5f6020819052908152604090205460ff1681565b60405190151581526020015b60405180910390f35b3480156100f9575f5ffd5b50475b6040519081526020016100e5565b348015610115575f5ffd5b50305b6040516001600160a01b0390911681526020016100e5565b34801561013b575f5ffd5b506100fc61014a36600461064b565b60016020525f908152604090205481565b348015610166575f5ffd5b506100fc674563918244f4000081565b348015610181575f5ffd5b506101187f000000000000000000000000000000000000000000000000000000000000000081565b3480156101b4575f5ffd5b506101bd61033c565b6040516100e59190610678565b3480156101d5575f5ffd5b506101186101e43660046106c3565b61039c565b3480156101f4575f5ffd5b506100a16103c4565b345f61020882610545565b9050674563918244f400008110156102685760405163d0cf94d160e01b815260206004820152601760248201527f4d696e696d756d20616d6f756e7420697320352055534400000000000000000060448201526064015b60405180910390fd5b335f90815260016020526040812080543492906102869084906106ee565b9091555050335f9081526020819052604090205460ff16806102fc576002805460018181019092557f405787fa12a823e0f2b7631cc41b3ba8828b3321ca811111fa75cd3aa3bb5ace0180546001600160a01b031916339081179091555f908152602081905260409020805460ff191690911790555b604080518481526020810184905233917fcd909ec339185c4598a4096e174308fbdf136d117f230960f873a2f2e81f63af910160405180910390a2505050565b6060600280548060200260200160405190810160405280929190818152602001828054801561039257602002820191905f5260205f20905b81546001600160a01b03168152600190910190602001808311610374575b5050505050905090565b600281815481106103ab575f80fd5b5f918252602090912001546001600160a01b0316905081565b336001600160a01b037f0000000000000000000000000000000000000000000000000000000000000000161461044757604051639115acc360e01b815260206004820152602160248201527f4f6e6c79206f776e65722063616e2063616c6c20746869732066756e6374696f6044820152603760f91b606482015260840161025f565b5f7f00000000000000000000000000000000000000000000000000000000000000006001600160a01b0316476040515f6040518083038185875af1925050503d805f81146104b0576040519150601f19603f3d011682016040523d82523d5f602084013e6104b5565b606091505b50509050806104df5760405163cf47918160e01b81524760048201525f602482015260440161025f565b7f00000000000000000000000000000000000000000000000000000000000000006001600160a01b03167fec02563a2a279255d98a8379169a934c5dd4fb9f242313e6dd68269cf2d704684760405161053a91815260200190565b60405180910390a250565b5f5f61054f610577565b90505f670de0b6b3a76400006105658386610707565b61056f919061071e565b949350505050565b5f5f73694aa1769357215de4fac081bf1f309adc32530690505f816001600160a01b031663feaf968c6040518163ffffffff1660e01b815260040160a060405180830381865afa1580156105cd573d5f5f3e3d5ffd5b505050506040513d601f19601f820116820180604052508101906105f1919061075b565b5050509150505f81136106365760405162461bcd60e51b815260206004820152600d60248201526c496e76616c696420707269636560981b604482015260640161025f565b6106446305f5e1008261071e565b9250505090565b5f6020828403121561065b575f5ffd5b81356001600160a01b0381168114610671575f5ffd5b9392505050565b602080825282518282018190525f918401906040840190835b818110156106b85783516001600160a01b0316835260209384019390920191600101610691565b509095945050505050565b5f602082840312156106d3575f5ffd5b5035919050565b634e487b7160e01b5f52601160045260245ffd5b80820180821115610701576107016106da565b92915050565b8082028115828204841417610701576107016106da565b5f8261073857634e487b7160e01b5f52601260045260245ffd5b500490565b805169ffffffffffffffffffff81168114610756575f5ffd5b919050565b5f5f5f5f5f60a0868803121561076f575f5ffd5b6107788661073d565b6020870151604088015160608901519297509095509350915061079d6080870161073d565b9050929550929590935056fea2646970667358221220a4408afdd0301ef6d741e58b272b7124764e43525b253b38ffd055b384f917fd64736f6c634300081c0033","linkReferences":{}},"methodIdentifiers":{"MINIMUM_USD()":"6b69a592","fund()":"b60d4288","fundedAmount(address)":"4099d033","funderList(uint256)":"be7a0f61","funders(address)":"031b3677","getBalance()":"12065fe0","getFunderList()":"ae6f4a5d","getThisContractAddress()":"31bfee0a","owner()":"8da5cb5b","withdrawn()":"c80ec522"},"id":0}